S00E00004D595F4156522E7372656328
S11300000C942A000C94E5020C943C030C94960383
S11300100C9447000C9447000C9447000C94470040
S11300200C9447000C9447000C9447000C94470030
S11300300C9447000C9447000C9447000C94470020
S11300400C9447000C9447000C9447000C94470010
S11300500C94470011241FBECFE5D8E0DEBFCDBF0E
S113006010E0A0E6B0E0EAE8F7E002C005900D92E7
S1130070AC38B107D9F720E0ACE8B0E001C01D927C
S1130080AA39B207E1F70E9477000C94C3030C94D9
S113009000008BE790E00E94FB00089561E08BE78D
S11300A090E00E94BB00089560E08BE790E00E941E
S11300B0BB00089561E08BE790E00E94BB000895C7
S11300C060E08BE790E00E94BB0008958BE790E02E
S11300D00E94180182E790E00E94920289E690E073
S11300E00E94920280E690E00E94920208950E948B
S11300F06600FFCFFC01892BD1F12081269526953E
S113010026952770808186FB992790F986FF18C071
S1130110913079F5E82FE770F0E0EE0FFF1FEC5710
S1130120FF4F0190F081E02D308181E090E002C02A
S1130130880F991F2A95E2F7832B808381E0089525
S1130140E081E770F0E0EE0FFF1FEC57FF4F0190E6
S1130150F081E02D308181E090E002C0880F991F8A
S11301602A95E2F780958323808381E0089580E0D7
S1130170089580E008950097D1F1DC012C91269533
S1130180269526952770662319F06130C9F031C091
S1130190DC01EC91E770F0E0EE0FFF1FE458FF4F35
S11301A00190F081E02D308181E090E002C0880F61
S11301B0991F2A95E2F780958323808381E008952F
S11301C0DC01EC91E770F0E0EE0FFF1FE458FF4F05
S11301D00190F081E02D308181E090E002C0880F31
S11301E0991F2A95E2F7832B808381E0089580E0AC
S11301F0089580E008950097D1F0DC012C912695B4
S1130200269526952770EC91E770F0E0EE0FFF1F1E
S1130210E458FF4F0190F081E02D308181E090E0BF
S113022002C0880F991F2A95E2F7832780830895D7
S1130230CF93DF93009759F0EC010E947A00688114
S113024067FB662760F9CE010E94BB0001C080E015
S1130250DF91CF910895009701F1FC0180858130F1
S113026061F018F0823089F01AC08FB780688FBFB0
S11302708BB780648BBF81E008958FB780688FBF90
S11302808BB780688BBF81E008958FB780688FBF7C
S11302908BB780628BBF81E0089580E0089580E091
S11302A008950097B9F0FC018085813049F018F079
S11302B0823059F011C08BB78F7B8BBF81E00895DA
S11302C08BB78F778BBF81E008958BB78F7D8BBF02
S11302D081E0089580E0089580E008950097B9F0E2
S11302E0FC018085813049F018F0823059F011C04A
S11302F08AB78F7B8ABF81E008958AB78F778ABFD8
S113030081E008958AB78F7D8ABF81E0089580E0F7
S1130310089580E00895009709F46EC0FC012085DB
S1130320213081F120F0223009F456C067C0FC016D
S11303308781811108C085B78D7F85BF85B78E7F82
S113034085BF81E00895813041F485B78D7F85BFF5
S113035085B7816085BF81E00895823041F485B717
S1130360826085BF85B78E7F85BF81E00895833025
S113037009F046C085B7826085BF85B7816085BFB7
S113038081E00895FC018781811108C085B7877FCA
S113039085BF85B78B7F85BF81E00895813041F4A7
S11303A085B7877F85BF85B7846085BF81E0089561
S11303B0823041F485B7886085BF85B78B7F85BF60
S11303C081E008958330F1F485B7886085BF85B7EF
S11303D0846085BF81E00895FC018781823029F41F
S11303E084B78F7B84BF81E00895833069F484B738
S11303F0806484BF81E0089580E0089580E00895DA
S113040081E0089581E0089581E00895009731F036
S1130410909399008093980081E0089580E0089576
S1130420009731F0909397008093960081E00895AF
S113043080E00895009731F09093950080939400A4
S113044081E0089580E00895009731F0909393003F
S11304508093920081E0089580E00895009731F040
S1130460909391008093900081E0089580E0089536
S1130470009731F090938F0080938E0081E008956F
S113048080E00895009731F090938D0080938C0064
S113049081E0089580E00895CF93DF93009791F170
S11304A0EC018F818130C1F48885882319F0813073
S11304B051F02AC08A819B810E9424028C819D81F3
S11304C00E942E0224C08A819B810E9438028C8162
S11304D09D810E9442021BC08885813049F018F03A
S11304E0823059F013C0888199810E9406020FC09E
S11304F0888199810E9410020AC0888199810E9492
S11305001A0205C080E003C080E001C080E0DF91F2
S1130510CF910895009721F006960E947A000895DD
S113052080E00895CF93DF93009799F0EC010E9447
S11305305101CE010E946E01CE010E948B01CE01B9
S11305400E948A02CE010E944C02CE010E942B011D
S113055001C080E0DF91CF910895E0919800F0917F
S11305609900309709F009950895E0919200F0916F
S11305709300309709F009950895E0919000F09167
S11305809100309709F009950895E0919600F09153
S11305909700309709F009950895E0918E00F09145
S11305A08F00309709F009950895E0918C00F0913F
S11305B08D00309709F009950895E0919400F09129
S11305C09500309709F0099508951F920F920FB680
S11305D00F9211242F933F934F935F936F937F93C5
S11305E08F939F93AF93BF93EF93FF934BB78AB7C8
S11305F086FB992790F985B7282F217085B78695B2
S1130600817030B332FB332730F946FF24C0913078
S113061011F5811105C0211103C00E94AD021BC058
S113062081110CC0213051F4311103C00E94BD026C
S113063012C0313081F40E94B5020DC0813029F41A
S1130640211103C00E94AD0206C0813021F4213083
S113065011F40E94AD02FF91EF91BF91AF919F9170
S11306608F917F916F915F914F913F912F910F9057
S11306700FBE0F901F9018951F920F920FB60F92F6
S113068011242F933F934F935F936F937F938F9393
S11306909F93AF93BF93EF93FF934BB78AB7982F72
S11306A0991F9927991F85B782FB222720F985B7BF
S11306B083FB882780F930B333FB332730F9442395
S11306C024F5913011F5811105C0211103C00E9458
S11306D0C5021BC081110CC0213051F4311103C07B
S11306E00E94D50212C0313081F40E94CD020DC0A7
S11306F0813029F4211103C00E94C50206C0813053
S113070021F4213011F40E94C502FF91EF91BF91B1
S1130710AF919F918F917F916F915F914F913F9195
S11307202F910F900FBE0F901F9018951F920F924C
S11307300FB60F9211242F933F934F935F936F93B0
S11307407F938F939F93AF93BF93EF93FF939BB745
S11307508AB785FB882780F995FF04C0813011F49E
S11307600E94DD02FF91EF91BF91AF919F918F9114
S11307707F916F915F914F913F912F910F900FBE99
S10D07800F901F901895F894FFCF16
S113078A49000000000011030200005A0060001B27
S113079A010100004E005400130100423B003800DE
S10F07AA350032003A0037003400310002
S9030000FC
