:100000000C942A000C944F020C947C020C948602EF
:100010000C9447000C9447000C9447000C94470044
:100020000C9447000C9447000C9447000C94470034
:100030000C9447000C9447000C9447000C94470024
:100040000C9447000C9447000C9447000C94470014
:100050000C94470011241FBECFE5D8E0DEBFCDBF12
:1000600010E0A0E6B0E0E4E2F5E002C005900D92F9
:10007000A637B107D9F720E0A6E7B0E001C01D928E
:10008000AC37B207E1F70E9457000C9490020C9431
:10009000000085E690E00E94DB00089585E690E090
:1000A0000E94F80080E690E00E94290208950E94D4
:1000B0004E00FFCFFC01892BD1F12081269526959A
:1000C00026952770808186FB992790F986FF18C0B6
:1000D000913079F5E82FE770F0E0EE0FFF1FE2595D
:1000E000FF4F0190F081E02D308181E090E002C06F
:1000F000880F991F2A95E2F7832B808381E008956A
:10010000E081E770F0E0EE0FFF1FE259FF4F019032
:10011000F081E02D308181E090E002C0880F991FCE
:100120002A95E2F780958323808381E0089580E01B
:10013000089580E008950097D1F1DC012C91269577
:10014000269526952770662319F06130C9F031C0D5
:10015000DC01EC91E770F0E0EE0FFF1FEA59FF4F72
:100160000190F081E02D308181E090E002C0880FA5
:10017000991F2A95E2F780958323808381E0089573
:10018000DC01EC91E770F0E0EE0FFF1FEA59FF4F42
:100190000190F081E02D308181E090E002C0880F75
:1001A000991F2A95E2F7832B808381E0089580E0F0
:1001B000089580E008950097D1F0DC012C912695F8
:1001C000269526952770EC91E770F0E0EE0FFF1F63
:1001D000EA59FF4F0190F081E02D308181E090E0FD
:1001E00002C0880F991F2A95E2F78327808308951C
:1001F000CF93DF93009759F0EC010E945A00688179
:1002000067FB662760F9CE010E949B0001C080E079
:10021000DF91CF910895009701F1FC018481813035
:1002200061F018F0823089F01AC08FB780688FBFF4
:100230008BB780648BBF81E008958FB780688FBFD4
:100240008BB780688BBF81E008958FB780688FBFC0
:100250008BB780628BBF81E0089580E0089580E0D5
:1002600008950097B9F0FC018481813049F018F0BD
:10027000823059F011C08BB78F7B8BBF81E008951E
:100280008BB78F778BBF81E008958BB78F7D8BBF46
:1002900081E0089580E0089580E008950097B9F026
:1002A000FC018481813049F018F0823059F011C08E
:1002B0008AB78F7B8ABF81E008958AB78F778ABF1C
:1002C00081E008958AB78F7D8ABF81E0089580E03C
:1002D000089580E00895009709F46EC0FC01248120
:1002E000213081F120F0223009F456C067C0FC01B2
:1002F0008381811108C085B78D7F85BF85B78E7FCB
:1003000085BF81E00895813041F485B78D7F85BF39
:1003100085B7816085BF81E00895823041F485B75B
:10032000826085BF85B78E7F85BF81E00895833069
:1003300009F046C085B7826085BF85B7816085BFFB
:1003400081E00895FC018381811108C085B7877F12
:1003500085BF85B78B7F85BF81E00895813041F4EB
:1003600085B7877F85BF85B7846085BF81E00895A5
:10037000823041F485B7886085BF85B78B7F85BFA4
:1003800081E008958330F1F485B7886085BF85B733
:10039000846085BF81E00895FC018381823029F467
:1003A00084B78F7B84BF81E00895833069F484B77C
:1003B000806484BF81E0089580E0089580E008951E
:1003C00081E0089581E0089581E00895009731F07B
:1003D00090937B0080937A0081E0089580E00895F7
:1003E000009731F0909379008093780081E0089530
:1003F00080E00895009731F0909377008093760025
:1004000081E0089580E008950097B9F0FC018481AF
:10041000813049F018F0823059F011C0808191810B
:100420000E94E6010895808191810E94F001089563
:10043000808191810E94FA01089580E0089580E012
:100440000895009721F002960E945A00089580E0D6
:100450000895CF93DF93009799F0EC010E9431014A
:10046000CE010E944E01CE010E946B01CE010E947E
:100470002102CE010E940402CE010E940B0101C0A4
:1004800080E0DF91CF9108958AB78F7B8ABFE0919A
:100490007A00F0917B00309709F0099508951F923A
:1004A0000F920FB60F9211242F933F934F935F93A8
:1004B0006F937F938F939F93AF93BF93EF93FF932C
:1004C0009BB78AB786FB882780F996FF04C08130E6
:1004D00011F40E944402FF91EF91BF91AF919F915F
:1004E0008F917F916F915F914F913F912F910F90DD
:1004F0000FBE0F901F9018951F920F920FB60F927C
:1005000011240F900FBE0F901F9018951F920F92FD
:100510000FB60F9211240F900FBE0F901F901895D9
:04052000F894FFCF7D
:100524004900130300423B003800350032003A0012
:0605340037003400310025
:00000001FF
