:100000000C942A000C9424020C9447000C94470092
:100010000C9447000C9447000C94DC020C94C3042D
:100020000C9447000C94CB020C9447000C948A0269
:100030000C946F030C9432030C9447000C945B03F4
:100040000C944D020C9447000C9447000C9447000C
:100050000C94470011241FBECFE5D8E0DEBFCDBF12
:1000600010E0A0E6B0E0ECE4FCE002C005900D92E8
:10007000A637B107D9F720E0A6E7B0E001C01D928E
:10008000AB3EB207E1F70E944D000C9424060C949D
:10009000000082E10E94E30008950E9494030E9400
:1000A0005C000E94CD0081E00E940F0269E470E0D4
:1000B00080E00E941B02FFCF0E94D6010E94E8014F
:1000C00083E20E94F50180E10E9401020E940C027D
:1000D0002FEF89EC98E0215080409040E1F700C07C
:1000E000000008951F93CF93DF931F92CDB7DEB723
:1000F000182F60E081E00E94E60060E082E00E944C
:10010000E6001982BE016F5F7F4F80E00E94BE0152
:10011000612F6695687789818778682B80E00E94D7
:10012000AE0161E082E00E94E6008FE99FE0019766
:10013000F1F700C0000060E082E00E94E600BE012E
:100140006F5F7F4F80E00E94BE01812F90E0880F9B
:10015000991F880F991F880F991F69816778887781
:10016000682B80E00E94AE0161E082E00E94E60020
:100170008FE99FE00197F1F700C0000060E082E0A6
:100180000E94E6008FE19EE40197F1F700C00000B5
:100190000F90DF91CF911F91089583E30E94720029
:1001A00082E30E94720088E20E9472008CE00E944A
:1001B000720081E00E94720086E00E94720082E07C
:1001C0000E94720008950E946D010895982F9695DF
:1001D000969596958770662309F43FC0613009F0C3
:1001E0007BC0913099F028F09230E9F0933041F1E2
:1001F00008954BB321E030E0B90102C0660F771FCC
:100200008A95E2F7CB01842B8BBB089548B321E09C
:1002100030E0B90102C0660F771F8A95E2F7CB0183
:10022000842B88BB089545B321E030E0B90102C0BA
:10023000660F771F8A95E2F7CB01842B85BB089563
:1002400042B321E030E0B90102C0660F771F8A9502
:10025000E2F7CB01842B82BB08959130A1F028F006
:100260009230F9F0933059F108954BB321E030E02A
:10027000B90102C0660F771F8A95E2F7CB0180951E
:1002800084238BBB089548B321E030E0B90102C05C
:10029000660F771F8A95E2F7CB018095842388BB90
:1002A000089545B321E030E0B90102C0660F771F21
:1002B0008A95E2F7CB018095842385BB089542B3EC
:1002C00021E030E0B90102C0660F771F8A95E2F79E
:1002D000CB018095842382BB0895982F969596959F
:1002E00096958770913099F028F09230E9F093302C
:1002F00041F108954BB321E030E0B90102C0660F2F
:10030000771F8A95E2F7CB0184278BBB089548B30A
:1003100021E030E0B90102C0660F771F8A95E2F74D
:10032000CB01842788BB089545B321E030E0B901B3
:1003300002C0660F771F8A95E2F7CB01842785BB41
:10034000089542B321E030E0B90102C0660F771F83
:100350008A95E2F7CB01842782BB0895813041F072
:1003600028F0823039F0833039F008956BBB08955E
:1003700068BB089565BB089562BB0895813051F054
:1003800028F0823059F0833069F008958BB3FB0177
:100390008083089588B3FB018083089585B3FB01B2
:1003A0008083089582B3FB01808308958CE080B937
:1003B00081B18E7F81B981B18D7F81B982B1826037
:1003C00082B986B7806486BF86B7846086BF089589
:1003D00086B7806286BF84E886BF06B607FEFDCF7B
:1003E00081B1887F8830E1F70895880F83B984E868
:1003F00086BF06B607FEFDCF81B1887F8831E1F761
:10040000089583B984E886BF06B607FEFDCF81B1A3
:10041000887F8832E1F7089584E986BF08958823AC
:1004200031F0813039F48FB780688FBF08958FB76E
:100430008F778FBF0895E82FF0E0EE0FFF1FEB5787
:10044000FF4F7183608308951F920F920FB60F9232
:1004500011242F933F934F935F936F937F938F93C9
:100460009F93AF93BF93EF93FF93E0918500F0913B
:100470008600309709F00995FF91EF91BF91AF91F8
:100480009F918F917F916F915F914F913F912F91AC
:100490000F900FBE0F901F9018951F920F920FB6DE
:1004A0000F9211242F933F934F935F936F937F93FA
:1004B0008F939F93AF93BF93EF93FF9324B135B185
:1004C000A8E8B3E10E9415062FEF33E040E050E0CA
:1004D0000E94F305209376003093770040937800D4
:1004E00050937900E091A300F091A400309709F0B7
:1004F0000995FF91EF91BF91AF919F918F917F915E
:100500006F915F914F913F912F910F900FBE0F9080
:100510001F9018951F920F920FB60F9211242F93D0
:100520003F934F935F936F937F938F939F93AF937B
:10053000BF93EF93FF9380917B008F5F80937B004D
:1005400090E0A0E0B0E04091B2005091B300609123
:10055000B4007091B50084179507A607B70751F44A
:10056000E0919900F0919A00099510927B0080919A
:10057000AE0082BFFF91EF91BF91AF919F918F919C
:100580007F916F915F914F913F912F910F900FBE8F
:100590000F901F9018951F920F920FB60F92112473
:1005A0008F93809184008F5F809384008F910F9050
:1005B0000FBE0F901F9018951F920F920FB60F92BB
:1005C00011242F933F934F935F936F937F938F9358
:1005D0009F93AF93BF9380917A008F5F80937A004F
:1005E000813091F486B597B5A0E0B0E080938000AB
:1005F00090938100A0938200B093830010928400B6
:100600008EB58F7B8EBD1FC08230E9F446B557B5DD
:100610002091840030E0AFEFBFEF0E941506DC01AF
:10062000CB01840F951FA11DB11D80937C00909379
:100630007D00A0937E00B0937F008EB580648EBD58
:1006400089B78F7D89BFBF91AF919F918F917F9126
:100650006F915F914F913F912F910F900FBE0F902F
:100660001F9018951F920F920FB60F9211242F937F
:100670003F934F935F936F937F938F939F93AF932A
:10068000BF93EF93FF93E0919D00F0919E00309710
:1006900009F00995FF91EF91BF91AF919F918F91D3
:1006A0007F916F915F914F913F912F910F900FBE6E
:1006B0000F901F9018951F920F920FB60F92112452
:1006C0008F9381E08093B7008091B6008F5F809315
:1006D000B6008F910F900FBE0F901F9018951F922C
:1006E0000F920FB60F9211242F933F934F935F9366
:1006F0006F937F938F939F93AF93BF93EF93FF93EA
:1007000080E00E941804FF91EF91BF91AF919F91FB
:100710008F917F916F915F914F913F912F910F90AA
:100720000FBE0F901F90189590E07EC0E92FF0E06B
:10073000EE0FFF1FE05AFF4F8081282F2695269548
:100740002695877031813323B9F1313009F06BC0C0
:10075000213089F028F02230C9F0233011F163C034
:100760004AB321E030E002C0220F331F8A95E2F73E
:10077000242B2ABB58C047B321E030E002C0220F2F
:10078000331F8A95E2F7242B27BB4DC044B321E0E9
:1007900030E002C0220F331F8A95E2F7242B24BBDE
:1007A00042C041B321E030E002C0220F331F8A95DE
:1007B000E2F7242B21BB37C0213091F028F0223002
:1007C000D9F0233029F12FC04AB321E030E002C034
:1007D000220F331F8A95E2F7209524232ABB23C0DA
:1007E00047B321E030E002C0220F331F8A95E2F7C1
:1007F0002095242327BB17C044B321E030E002C07A
:10080000220F331F8A95E2F72095242324BB0BC0C7
:1008100041B321E030E002C0220F331F8A95E2F796
:100820002095242321BB9F5F9B3008F47FCF089540
:100830008FB9779BFECF8FB18093AD000895CF9392
:10084000DF939C01FB01DC011196CD91DC911297A5
:10085000D383C2838C819D81958384838C819D8188
:10086000DC0113967C936E9312977D836C833187A2
:100870002087F90180818F5F8083DF91CF91089578
:10088000CF93DF93FC01A085B185C281D3818481A0
:1008900095819D838C83C481D581828193819B8343
:1008A0008A8311968D919C911297E817F90731F47C
:1008B0008481958112969C938E9311971186108650
:1008C0008C9181508C938C91DF91CF9108950F92F0
:1008D0000FB6F8940F921F9211242F923F924F92CD
:1008E0005F926F927F928F929F92AF92BF92CF92C0
:1008F000DF92EF92FF920F931F932F933F934F93AB
:100900005F936F937F938F939F93AF93BF93CF9397
:10091000DF93EF93FF93A091E900B091EA000DB649
:100920000D920EB60D920E94E50481110E949F0562
:10093000A091E900B091EA00CD91CDBFDD91DEBF7D
:10094000FF91EF91DF91CF91BF91AF919F918F91E7
:100950007F916F915F914F913F912F911F910F91D7
:10096000FF90EF90DF90CF90BF90AF909F908F90CF
:100970007F906F905F904F903F902F901F900F90BF
:100980000FBE0F9008950E9467041895E091C30070
:10099000F091C4008081811107C08FEF9FEF909389
:1009A000BA008093B9000895E091C300F091C400AB
:1009B0000580F681E02D0680F781E02D828193810C
:1009C0009093BA008093B9000895DF92EF92FF925E
:1009D0000F931F93CF93DF938091B800811197C03D
:1009E000E090BF00F090C0008FEFE81AF80AF09294
:1009F000C000E092BF00E114F104B9F48091C3009B
:100A00009091C4002091C1003091C2003093C40085
:100A10002093C3009093C2008093C1008091BB00DB
:100A20008F5F8093BB000E94C6048091B9009091B3
:100A3000BA00E816F90628F4D12C53C0DD24D3946B
:100A400001C0D12CE091C300F091C40080818111DC
:100A500007C08FEF9FEF9093BA008093B90041C019
:100A6000E091C300F091C4000580F681E02DC681BD
:100A7000D7818A819B81E816F90628F49093BA0001
:100A80008093B9002EC08E010E5F1F4FC8010E94D7
:100A900040048C899D89892B21F0CE010C960E94FF
:100AA00040048E899091BE00981710F48093BE0088
:100AB00090E09C01220F331F220F331F220F331FA0
:100AC000820F931FB8018B539F4F0E941F049E8972
:100AD000E091E900F091EA008689981708F0AECF1E
:100AE000B1CFE091E900F091EA00868990E0FC0145
:100AF000EE0FFF1FEE0FFF1FEE0FFF1F8E0F9F1F4A
:100B0000FC01EB53FF4F8081823040F409C080919B
:100B1000BD008F5F8093BD00D12C02C0DD24D39433
:100B20008091BC00882311F0DD24D3948D2DDF91BA
:100B3000CF911F910F91FF90EF90DF9008958091DA
:100B4000B800882321F081E08093BC0008951092C2
:100B5000BC002091BE0001C02150822F90E0FC011A
:100B6000EE0FFF1FEE0FFF1FEE0FFF1FE80FF91F25
:100B7000EB53FF4F3081332379F3AC01440F551F02
:100B8000440F551F440F551F480F591FDF010180A7
:100B9000F281E02D0280F381E02D1296FC93EE931A
:100BA000119748535F4FE417F50729F442815381A9
:100BB000FD0152834183FC01EE0FFF1FEE0FFF1F6B
:100BC000EE0FFF1F8E0F9F1FFC01EB53FF4F0180A5
:100BD000F281E02D868197819093EA008093E9006D
:100BE0002093BE000895A1E21A2EAA1BBB1BFD0193
:100BF0000DC0AA1FBB1FEE1FFF1FA217B307E407FC
:100C0000F50720F0A21BB30BE40BF50B661F771F53
:100C1000881F991F1A9469F7609570958095909533
:100C20009B01AC01BD01CF010895A29FB001B39F0C
:100C3000C001A39F700D811D1124911DB29F700DE5
:0C0C4000811D1124911D0895F894FFCF30
:100C4C0010011A001201100111010101020103012E
:060C5C0004010501060180
:00000001FF
